:020000040800F2
:1000000060070020810100087B13000879130008B5
:1000100000000000000000000000000000000000E0
:100020000000000000000000000000007F13000836
:1000300000000000000000007D130008811300088C
:100040009301000893010008930100089301000840
:100050009301000893010008930100089301000830
:100060009301000893010008930100089301000820
:100070009301000893010008930100089301000810
:10008000930100089301000893010008000000009C
:1000900093010008930100089301000893010008F0
:1000A00093010008930100089301000893010008E0
:1000B00093010008930100089301000893010008D0
:1000C00000F002F800F04CF812A030C808382418EC
:1000D0002D18AC4201D100F043F80FCCA246AB463C
:1000E0000CA730CF2D1B083F3F197C427F1E544484
:1000F0002D090426F441641EAC4201D300F030F80F
:100100000126334200D0FB1A3343984754465D46DC
:10011000DFE70000441C0000641C0000103A02D31A
:1001200078C878C1FAD8520701D330C830C101D598
:1001300004680C6070470000704700000023002432
:1001400000250026103A01D378C1FBD8520700D30E
:1001500030C100D50B6070471FB51FBD10B510BD75
:1001600000F0D5F81146FFF7F7FF01F027FC00F08B
:10017000EDF803B4FFF7F2FF03BC00F0F3F8000062
:100180000748804707480047FEE7FEE7FEE7FEE72F
:10019000FEE7FEE704480549054A064B70470000A4
:1001A00055140008C100000860010020600700200D
:1001B0006003002060030020FEB5044610460D4693
:1001C000184373D0A6468C460020A41A01469D41D0
:1001D00067D36646002701243D46B61A9D4102D3E7
:1001E00013463A462124654676462F04360C3E4394
:1001F0002D0CB61A9D4104D3150C1B042B4312047D
:100200001034654676462F06360A3E432D0AB61A46
:100210009D4104D3150E1B022B4312020834654680
:1002200076462F0736093E432D09B61A9D4104D361
:10023000150F1B012B431201241D65467646AF079F
:10024000B6083E43AD08B61A9D4104D3950F9B00F6
:100250002B439200A41C65467646EF0776083E4382
:100260006D08B61A9D411AD392185B41641C16E0C2
:100270000018764665464941B71A9D4101910090A4
:1002800009D36046B11A98418E4684460098019978
:100290000025401C6941DD0752082A435B08641EA3
:1002A000E6D57246634603B0F0BDFFE7204628431B
:1002B00007D00020C0430146C046C04622462B4618
:1002C000F1E700200146F7E701E004C0091F042917
:1002D000FBD28B0701D50280801CC90700D00270B9
:1002E000704700290BD0C30702D00270401C491E82
:1002F000022904D3830702D50280801C891EE3E70C
:100300000022EEE70022DFE770477047704775462E
:1003100000F024F8AE46050069465346C008C00008
:10032000854618B020B5FFF735FF60BCB6460026FD
:100330000027C0C5C0C5C0C5C0C5C0C5C0C5C0C5F3
:10034000C0C5403D490849008D46704710B5044678
:10035000C046C0462046FFF70CFF10BD004870475E
:100360007000002001491820ABBEFEE72600020005
:1003700070470000B0B5044600F0E0F80546601C88
:1003800002D08E480078041900F0D8F8401BA04233
:10039000FAD3B0BDF0B58AB0029009910A68002A7C
:1003A00000D1B2E05A48029B834201D0062000E00F
:1003B00005200B2109075918890A9B055918009136
:1003C000052900D3009000273C463E460CE011432F
:1003D00050480160761C099802681046F0403F1DA5
:1003E000A41C002800D190E001210846B040024042
:1003F000F0D0039601920591069703252946A14066
:10040000CA43099926464C6823462B405F1E012F9C
:1004100008920494079610D80F4602998D681540EB
:10042000FF68B7402F438F60E506ED0F039EB54090
:100430004F6887432F434F6006E0032B039E03D191
:100440002B46029F049C1EE0029FF8680899084012
:1004500009998D6807998D400543FD60022B049C26
:1004600011D11C20069908400F218140F3089B0000
:10047000FC18256A8D43099B196981402943216233
:100480005C6803232340079DAB4038680899084007
:1004900018433860A0032C46800F069F059B99D017
:1004A0004D490868184308600C2038400F218140EE
:1004B000032335469D43184AAB588B43009981402E
:1004C0001943A9501348816809984068C30202D5AE
:1004D000019A114301E0019A91430E4B9960D9684A
:1004E000830201D5114300E091430A4BD96059685A
:1004F000830301D5114300E09143064B596019680D
:10050000C00300D563E7914362E70AB0F0BDC0467F
:10051000001C0050000401400800014042690B46E5
:1005200093430A401104C91881617047002A02D020
:100530001822815070472822815070470548006872
:100540007047C0461D48007802490A6810180860C4
:100550007047C0465801002010B508480168402285
:100560000A4302600024204600F00AF8002801D067
:10057000012010BD00F026F8204610BD00200240EA
:1005800070B504467D20C0000C4E317801F0D0FAE1
:1005900001460B48006801F0CBFA00F089FD012507
:1005A000032C08D8002806D10025E84321462A4616
:1005B00000F014F87460284670BDC0466400002046
:1005C0006C000020044801680122114301601107FA
:1005D00042680A434260704734100240002805D444
:1005E0000322034693430A4A9A1803E00C2202406E
:1005F000064BD2188007C00E8901C9B28140FF2383
:1006000083401068984308431060704714ED00E081
:1006100000E400E0F0B589B0066801252F02EA0287
:1006200011462031874B0E427CD005920890290755
:10063000143B18680840049002D1186808431860F9
:1006400001930291804C2068384211D120683843D0
:100650002060FFF773FF06462068384208D1FFF795
:100660006DFF801B6428F7D90325284609B0F0BD2B
:100670000326340573484C38069001682140089BD6
:1006800058680246039422400096340491420AD1ED
:1006900002462240A242069E0DD19A68039B1A4050
:1006A000914205D107E001462140A142069E02D1B8
:1006B00031688903D9D4634B59680794214021D00C
:1006C000079A1040814203D00898007880060AD427
:1006D00008988068079A1040814213D008980068F3
:1006E000059908420ED05868E9045A680A435A60CE
:1006F0005A688A435A600146079A914359603842C2
:1007000000D08CE00898066805990E42079C59D1E4
:10071000B1066DD40499002904D1019C2168029A84
:1007200091432160F1070DD1B10713D4710719D49A
:10073000310720D43E4227D171062ED40025310640
:1007400093D535E0196803229143C2680A431A60C1
:10075000B107EBD519680C22914302690A431A606C
:100760007107E5D5032189021A688A43416911435B
:1007700019603107DED5032109031A688A438169AC
:10078000114319603E42D7D0032109041A688A43F5
:10079000C169114319607106D0D5012189061A6813
:1007A0008A43416A114319600025310600D45CE791
:1007B00003218A0419689143006A08431860284697
:1007C00009B0F0BD826811462140A1420BD10398C7
:1007D000024003231B05069D2C689C43194B089877
:1007E00014432C60079C5A680A435A60B10691D59D
:1007F000426811462140A1420AD1039802400323D6
:100800001B05069D2C689C430E4B089814432C60D6
:100810005A680A435A600499002983D17DE7FFF79B
:100820008DFE0546904C074B5868800500D569E75A
:10083000FFF784FE401BA042F5D9009D284609B071
:10084000F0BDC0464C10024000700040F0B583B0CF
:100850000290002846D00E4682480068012101918E
:100860000840B04216D27F4908680125A8433043AA
:1008700008607D4CFFF762FE07467A480068284012
:10088000B04207D0FFF75AFEC01BA042F5D90320A3
:1008900003B0F0BD029800688107814D06D5296834
:1008A000F0229143029A92680A432A60C0071CD141
:1008B0006C48006801273840B04225D9694908686A
:1008C000B8430860684CFFF739FE05466548006884
:1008D000C00719D0FFF732FE401BA042F6D9032013
:1008E00003B0F0BD012003B0F0BD02984268294674
:1008F0000C39012A32D0032A35D0022A39D10968AD
:100900008903019833D538E0029800684107644CA8
:1009100007D50721090222688A430299C968114351
:100920002160000708D50720C00221688143029892
:100930000069C0000843206021680807820F7348DF
:100940007A4412795200974401617F683804214645
:10095000083909680904490F884075E009684907A2
:10096000019804D509E009688901019805D403B00C
:10097000F0BD096889050198F9D52968032001901F
:10098000814311432960FFF7D9FD0746029840686B
:10099000354C032811D002281DD0012829D1286800
:1009A0000C210140042900D182E7FFF7C7FDC01BDD
:1009B000A042F4D9019803B0F0BD28680C21014091
:1009C0000C2900D174E7FFF7B9FDC01BA042F4D990
:1009D000019803B0F0BD28680C210140082900D11E
:1009E00066E7FFF7ABFDC01BA042F4D9019803B046
:1009F000F0BD28680007800F00D159E7FFF79EFD82
:100A0000C01BA042F5D9019803B0F0BD20460C38B8
:100A10000068C00612D53F4816E08A02120F3C4B10
:100A20009A5C0902890F491C2368DB0309D420461C
:100A30000C380068C00603D4374802E0364803E0AB
:100A40003448504301F074F821680906090F074A39
:100A5000515CC8401149086005480068FFF790FDE7
:100A600003B0F0BD0020024088130000261D0008DE
:100A70006800002009480068094909684905490FCC
:100A8000084A515CC8407047044800680449096836
:100A90008904490F034A515CC84070476C0000202C
:100AA0000C100240361D000810B5844AD1680807B2
:100AB000830F16487B441B795B009F440108070D98
:100AC0000120000451680904490F884010BD1068D6
:100AD000C00613D50F4810BD8B021B0F0C4CE35CF6
:100AE0000902890F491CD468E40303D41068C006C6
:100AF00006D40948584301F01BF810BD064810BD44
:100B00000448584301F014F810BDC04600127A00A2
:100B10003E1D000800093D000024F400F0B589B036
:100B2000002856D0654EF1680C220A400692012139
:100B300005910904F76804910F4007900078C007F9
:100B400010D00698082806D006980C2800D0D7E0C8
:100B5000002F00D1D4E03068800303D507984068A7
:100B6000002852D007980078800735D4079800787D
:100B7000C0064DD407980078000767D40799087815
:100B8000400700D59CE00878800600D523E107984F
:100B9000846A002C1AD006980C2800D06FE1012C32
:100BA00033D0F068049A0240079BD96A8A422CD15C
:100BB0000F21890401401A6B914226D10321890536
:100BC0000840596B8842059800D05BE2002009B0CC
:100BD000F0BD012009B0F0BD079BD868810604D59F
:100BE000316820221143316090430699042906D0D0
:100BF00006990C2900D0AEE0002F00D0ABE03168A0
:100C000000283AD10422114037D0059809B0F0BD30
:100C10000698002800D1B4E030680799C969002916
:100C200000D108E101210A02104330604C02FFF7B5
:100C300085FC05463068204200D00FE1FFF77EFCBE
:100C4000401B0228F6D9032009B0F0BD306D07998A
:100C50004969002900D1DDE0012108433065FFF733
:100C60006DFC0546306D800788D4FFF767FC401B9C
:100C70000228F7D9032009B0F0BD1F2109027268CC
:100C80008A4319690902114371603168092291434D
:100C900001433160F1680807820FFB485200C046EB
:100CA0007A4492885200974403002001DE01260115
:100CB00070680004410F04988840D4E1001002409D
:100CC00001221107B06B0840029002D1B06B0843BB
:100CD000B063019103921402F24F3868C00525D425
:100CE000386820433860FFF729FC05463868204201
:100CF0001CD1FFF723FC411B03206429F6D9C1E175
:100D00000798406805994C040499884209D0052148
:100D10000904884200D0C9E0059880043168014385
:100D200031603068049908433060CFE007988068EC
:100D3000002800D122E1052109028842039A00D14E
:100D400033E1A04200D134E1306DA043306591021F
:100D5000306D88432FE13168002800D1DDE00922A1
:100D6000914301433160FFF7E9FB054630684007D6
:100D700000D5F9E0FFF7E2FB411B03200229F5D97A
:100D800080E130688005079B03D5D869002800D131
:100D90003BE70720400371688143586A0143716053
:100DA000FF21090672688A43196A09068918716069
:100DB000400B04998140F0680006000FB64A105CB1
:100DC000C140B6480160B6480068FFF7D9FB00286B
:100DD00000D057E1CEE6B06807998969002900D1B3
:100DE000ACE001210843B060706B084370634803B6
:100DF000AE490A6802430A60FFF7A0FB0546B068E7
:100E0000800700D5C3E6FFF799FB411B03200229A9
:100E1000F5D937E1012188433065FFF78FFB05469F
:100E2000306D800700D4A9E6FFF788FB411B032043
:100E30000229F5D926E101210A02904330604C02D3
:100E4000FFF77CFB05463068204200D192E6FFF7B1
:100E500075FB411B03200229F5D913E1072040034C
:100E600071688143079A506A08437060FF2000064A
:100E700071688143106A0006401870607AE60127A5
:100E80003806316881433160FFF758FB0546022C74
:100E900000D0AAE07F063068384200D1C1E0FFF7F9
:100EA0004DFB411B03200229F5D9EBE03168049A80
:100EB000914331603168114008910899059989047E
:100EC00032688A433260002800D19CE0FFF736FB8D
:100ED00005463068204200D044E6FFF72FFB401B58
:100EE0006428F6D9032009B0F0BD3068C00600D4EC
:100EF00087E06748B7E08A02120F644B9A5C0902E8
:100F0000890F491CF368049C234200D0A8E0306894
:100F1000C00600D5A3E05F48A2E001208143316014
:100F2000FFF70CFB05463068400700D41EE6FFF7CC
:100F300005FB411B03200229F5D9A3E001218843C9
:100F4000B060480359490A6882430A60FFF7F6FA1D
:100F50000546B068800700D419E6FFF7EFFA411B99
:100F600003200229F5D98DE01F200002716881431A
:100F700007980069000208437060F7E5306DA043F0
:100F80003065039A9002316D814331655402464FBA
:100F9000FFF7D4FA0546306D20421CD0FFF7CEFA99
:100FA000411B0320B942F6D96CE09002316D014338
:100FB0003165306D2043306554023B4FFFF7BEFA78
:100FC0000546306D204206D1FFF7B8FA411B0320D9
:100FD000B942F6D956E002980028079900D0D2E528
:100FE000B06B019A9043B063CDE57C063068204237
:100FF00000D1EBE5FFF7A2FA411B03200229F5D946
:1010000040E024482FE0FFF799FA05463068204277
:1010100000D1A7E5FFF792FA411B03206429F5D917
:1010200030E0FD200004F1688143079B2C330DCB99
:10103000084310431843F0602748401C31680143BF
:101040003160FFF77BFA04463068384200D0BDE5D6
:10105000FFF774FA011B03200229F5D912E00C48AE
:10106000504300F065FDF1680906090F0A4A515C1A
:10107000C8400A4908600A480068FFF781FA00285A
:1010800000D173E509B0F0BD00127A003E1D0008E2
:1010900000093D000024F400261D00086C0000201B
:1010A000680000200070004088130000200001400C
:1010B000401E010E01D0012070470749074A5060C9
:1010C000074803680B400321890759180160002075
:1010D0009060072111607047FFFFFF0010E000E003
:1010E00020ED00E0B0B5002817D00446C06F0028FE
:1010F00005D1782000212154204600F02BF824202F
:10110000E067206801680125A9430160204600F0DE
:101110006DFA002803D02846B0BD0120B0BD606A3A
:10112000002802D0204600F096F90920C00221686C
:101130004A6882434A6088682A2290438860086827
:10114000012202430A60204600F0EEF905462846D7
:10115000B0BD000080B586B000681149884201D05A
:1011600006B080BD012041040E4AD3680B43D36012
:10117000116801431160116801400091042005903D
:101180000320049000200390022002900C20019084
:1011900005200007009901A9FFF7FCF806B080BD03
:1011A000004400402C100240F0B587B004460546CC
:1011B0005835A86A202812D1012600290CD01746DC
:1011C000002A09D001263203A06890420BD1C8073B
:1011D00009D02069002806D1304607B0F0BD0226AC
:1011E000304607B0F0BD02A846C006930026EE6266
:1011F0002220A8622666FFF7A1F905906F802F8054
:10120000A068002811D0049909078842069912D0D5
:10121000039A904214D1206900280AD155480490BD
:10122000A8800027029803901BE0206900280699F7
:1012300009D1FF2008E02069002804D03F2003E006
:10124000AE80049602E07F200490A8800396029F5F
:1012500007E00499084038707F1C06996888401E92
:1012600068806888002816D000912021002620463A
:101270003246059B00F0D0FA00280BD12068406A66
:10128000002FE6D10499084003990880891C039136
:101290000027E2E703262020A862304607B0F0BD11
:1012A000F0B585B00546C06F202811D10120002976
:1012B0000CD01646002A09D001200703AA68BA42BA
:1012C00009D1CA0707D02A69002A04D105B0F0BDA8
:1012D000022005B0F0BD019103932C46503400204C
:1012E000029060632120E867FFF728F90490668088
:1012F0002680A868B84202D12869002801D0019F41
:1013000002E000270198029003990CE0029A1088ED
:101310001849084029688862921C0292374603994E
:101320006088401E60806088002810D00091802175
:10133000002628463246049B00F06EFA002814D19D
:10134000002FE3D03878296888627F1CE7E7009196
:10135000402100222846049B00F05EFA2021E96724
:101360000028B3D0032005B0F0BD2020E86703209B
:1013700005B0F0BDFF010000FEE7FEE770477047D3
:1013800080B5FFF7DFF880BD70B59EB010AC201DB2
:101390003421FEF7B7FF01A8001D2421FEF7B2FF9C
:1013A0000320C0022A490A68824301201790C00224
:1013B0001018086000251A950526700319901895D5
:1013C000102010902046FFF7A9FB00280DD0EFF366
:1013D000108072B67D208400350720212846FFF753
:1013E0009DF82046FEF7C6FFF7E70C950F200B90FF
:1013F0000D950E950F950BA82946FFF727FA0028A3
:101400000DD0EFF3108072B67D20840035072021C7
:101410002846FFF783F82046FEF7ACFFF7E705956F
:101420000220019001A8FFF7F5F800280DD0EFF396
:10143000108072B67D208400350720212846FFF7F2
:101440006DF82046FEF796FFF7E71EB070BDC04668
:10145000007000407047B0B5416ACA070CD18A07D6
:1014600014D44A071CD40A0724D4CA062CD48A06EA
:1014700034D44A063CD44CE00122520403685C6830
:101480009443826A22435A608A07EAD501221204F1
:1014900003685C689443C26A22435A604A07E2D5F3
:1014A0000122920403685C689443026B22435A60F1
:1014B0000A07DAD50122D20303685C689443426BC1
:1014C00022435A60CA06D2D50122120303689C68DF
:1014D0009443826B22439A608A06CAD50122520342
:1014E00003689C689443C26B22439A604A0610D5F5
:1014F00001221305026854689C43056C2C43546018
:101500009D4206D103235B0554689C43436C2343EF
:101510005360090607D50121C904026853688B434B
:10152000806C18435060B0BDF0B583B004460646E9
:1015300078360027F760FFF701F803462068016856
:1015400009071FD52848009001200290410500227C
:1015500020461D4600F060F9002811D0EFF31080FE
:10156000029981F3108821680A6880239A430A60EF
:1015700080F310882020E0670320377003B0F0BDAF
:1015800020682B460068400725D5174800900125A4
:10159000A9050022204600F03FF900281BD0EFF3F8
:1015A000108085F3108809214901226813688B4354
:1015B000136080F31088EFF3108085F310882168A2
:1015C0008A68AA438A6080F310882020B0600320D4
:1015D000377003B0F0BD2020E067B0602766676613
:1015E0003846377003B0F0BDFFFFFF01F0B581B0A2
:1015F000044601680868764A0240A06823690343EC
:10160000606918431043E269104308600326300301
:101610004B688343E06818434860A5696D4B994265
:1016200002D0206A284300E028460B252D028F684F
:10163000AF4307438F606848814214DD0027674845
:1016400081421FD0664881421CD06648814243D106
:101650006648C06C8007000F66A52F580125E80377
:10166000994213D13DE06048814205D0994233D17F
:101670005E48C06C000A01E05C48C06C0C25054067
:101680005B4847590125E80399422AD0824212D18A
:10169000082F00D996E0C0467F443F797F00BF44C1
:1016A000043C46914C9191917300FFF7E3F90028B7
:1016B00000D069E085E0082F00D983E07F443F79BE
:1016C0007F00BF44042F3F7F457F7F7F7200FFF77D
:1016D000D1F9002869D174E010270125E803994267
:1016E000D4D1082F6ED8C0467F443F797F00BF44D5
:1016F000046909690F6969693500FFF7BBF90028BA
:101700002CD15EE039480068C00626D53E4825E069
:10171000FFF7CAF9002821D153E0FFF7B5F90028F7
:1017200032D14EE0FFF7B0F900283ED149E02F4812
:101730000068C00627D5344826E0FFF7B5F9002831
:1017400022D13EE029480068C0062DD52E482CE065
:10175000FFF7AAF9002828D133E02A4862685643E7
:10176000B0422FD3110388422CD8010E5608000234
:10177000002380195941FEF71FFD25494118254ACC
:1017800091421CD31EE01F48400061684A081018AF
:1017900000F0CEF90246103A1C498A4212D20140AA
:1017A0000007400F08430AE0164861684A0810180D
:1017B00000F0BEF901461039144A914202D2216864
:1017C000C86000250020A066E066284601B0F0BD94
:1017D000F369FFEF00480040FF4B0040004C004021
:1017E000005000400038014000440040001002401A
:1017F000481D000801000000040000000200000075
:10180000080000000024F40000093D00F0FF000083
:1018100000FDFFFF00FD0F00F0B587B015460F4635
:101820000668F1693940C91B4A424A410021AA426F
:1018300025D106930C9C002C24D00B46611C26D18C
:10184000F1693940C91B4A424A41AA4214D1F1699F
:101850003940C91B4A424A41AA420DD1F169394077
:10186000C91B4A424A41AA4206D1F1693940C91B03
:101870004A424A41AA42E3D0184607B0F0BD0846A2
:1018800007B0F0BDFEF75AFE032007B0F0BD02938B
:1018900001467831039101210191C902049105901B
:1018A00006E0C9693940CA1B51425141A9424BD196
:1018B000FEF744FE0699411A0323A142DCD805989D
:1018C00001680A685207ECD5CA6912073FD4CA6991
:1018D0002646049C22423446E3D01F460498086200
:1018E000EFF31082012181F3108809235B01059831
:1018F000046825689D43256082F31088EFF3108209
:1019000081F31088059803689C688C439C60059857
:1019100082F31088026E012A0BD1EFF3108281F35B
:10192000108801680B681024A3430B60059882F3AC
:1019300010882021039B99600022026682661A703B
:10194000D960384607B0F0BD029807B0F0BD082551
:101950000D62EFF31081019880F310880922520183
:10196000059B1B681C6894431C6081F31088EFF38F
:10197000108180F31088059A1268936883439360FE
:10198000059B81F31088196E01290CD1EFF31081AA
:10199000012282F310881A6813681024A34313608D
:1019A000059B81F310882021039A9160002119661C
:1019B00099661170D56007B0F0BD000088B0FEF7E1
:1019C000CBFDFFF7E1FC002507950695524801681D
:1019D00004221143016001681140029102990168DB
:1019E000802211430160016811400291029901684F
:1019F00001273943016000683840029002980520B1
:101A000004072021019120462A46FEF78FFD059507
:101A100021200004049078030390404803AE31462F
:101A2000FEF7B8FC069505950497019803902046AB
:101A30003146FEF7AFFC3A480C21E1225202394B05
:101A4000036042608560C560056141618561C56173
:101A500005624562FFF746FB00280BD0EFF31080CC
:101A600072B620212046FEF759FD7D208000FEF74A
:101A700081FCF6E77D20C0000090FEF77BFCEE4382
:101A80002748294C0195022521462A463346FFF76F
:101A900007FCA41C224821462A46019D3346FFF735
:101AA00083FB00281ED10098FEF764FC1E4F3946C8
:101AB00012311B4811223346FFF7F2FB1B48FEF799
:101AC00059FC3946233116483F223346FFF7E8FBDD
:101AD0001648FEF74FFC391D11480E223346FFF71A
:101AE000DFFB2F460E4D0222284621463346FFF7E4
:101AF0005BFB0028F7D10098FEF73CFC0A4D294615
:101B00001231074811223346FFF7CAFB002F2F4638
:101B1000019D0648D2D1DCE72C100240000800509D
:101B2000D00000200044004000000020B80B00005E
:101B300043088B421AD3002203098B4279D3030A4C
:101B40008B425ED3030B8B4242D3030C8B4227D3D1
:101B50000902FF2212BA030C8B4202D312120902AD
:101B600003D0030B8B4233D31AE0D3E0411A8041F8
:101B7000401C704703460B4371D443088B42F5D396
:101B8000002203098B4254D3030A8B4239D3030B3F
:101B90008B421DD3030C8B4202D394466EE0090A9C
:101BA000C30B8B4201D3CB03C01A5241830B8B4230
:101BB00001D38B03C01A5241430B8B4201D34B0319
:101BC000C01A5241030B8B4201D30B03C01A52417E
:101BD000C30A8B4201D3CB02C01A5241830A8B4203
:101BE00001D38B02C01A5241430A8B4201D34B02EC
:101BF000C01A5241030A8B4201D30B02C01A524150
:101C0000CDD2C3098B4201D3CB01C01A5241830903
:101C10008B4201D38B01C01A524143098B4201D33D
:101C20004B01C01A524103098B4201D30B01C01A68
:101C30005241C3088B4201D3CB00C01A52418308E2
:101C40008B4201D38B00C01A524143088B4201D30F
:101C50004B00C01A5241411A524110007047CA0F3E
:101C600000D04942031000D34042534000229C461A
:101C700003098B422DD3030A8B4212D38901FC2224
:101C800012BA030A8B420CD3890192118B4208D3FA
:101C9000890192118B4204D3890137D0921100E05F
:101CA0008909C3098B4201D3CB01C01A5241830970
:101CB0008B4201D38B01C01A524143098B4201D39D
:101CC0004B01C01A524103098B4201D30B01C01AC8
:101CD0005241C3088B4201D3CB00C01A5241830842
:101CE0008B4201D38B00C01A5241D9D243088B4298
:101CF00001D34B00C01A5241411A00D20146524151
:101D0000104663465B1000D34042704763465B1049
:101D100000D3404201B50021004201D0C94308462A
:101D2000C046C04602BD00000000000000000102E5
:101D3000030406070809000000000102030403046D
:101D400006080C10182030000000000004000000FD
:101D50000200000008000000781D000800000020BC
:101D6000700000001C010008E81D00087000002041
:101D7000F00600003C01000841544F4B41542B51E8
:101D8000485454504745543D383041542B514854E1
:101D9000545055524C3D36332C383068747470733F
:101DA0003A2F2F6D6F64656D2D746573742E766593
:101DB0007263656C2E6170702F73656E736F722D18
:101DC000646174613F73656E736F72313D323526A5
:101DD00073656E736F72323D2D3500000100000097
:081DE0000400000000002000D7
:04000005080000C12E
:00000001FF
