:020000040800F2
:1000000068080020CD010008B7190008B5190008DC
:1000100000000000000000000000000000000000E0
:10002000000000000000000000000000BB190008F4
:100030000000000000000000B9190008BD19000808
:10004000DF010008DF010008DF010008DF01000810
:10005000DF010008DF010008DF010008DF01000800
:10006000DF010008DF010008DF010008DF010008F0
:10007000DF010008DF010008DF010008DF010008E0
:10008000DF010008DF010008DF01000800000000B8
:10009000DF010008DF010008DF010008DF010008C0
:1000A000DF010008DF010008DF010008DF010008B0
:1000B000DF010008DF010008DF010008DF010008A0
:1000C00000F002F800F056F812A030C808382418E2
:1000D0002D18AC4201D100F04DF80FCCA246AB4632
:1000E0000CA730CF2D1B083F3F197C427F1E544484
:1000F0002D090426F441641EAC4201D300F03AF805
:100100000126334200D0FB1A3343984754465D46DC
:10011000DFE70000F823000018240000103A02D3A3
:1001200078C878C1FAD8520701D330C830C101D598
:1001300004680C6070470000704700000023002432
:1001400000250026103A01D378C1FBD8520700D30E
:1001500030C100D50B60704710B5642902D100F0A2
:1001600021F910BD002010BD1FB500F003FA1FBD1E
:1001700010B510BD00F0E8FB1146FFF7F5FF01F0E8
:100180003BFF00F000FC03B4FFF7F2FF03BC00F0FC
:1001900007FC000030B40C490C684A6823681068FA
:1001A000C0181060241D121D8C4207D28A4208D24A
:1001B0000C604A6030BC4000400870470C00DC3CDA
:1001C000F6E70A00DC3AF3E70C0100200748804715
:1001D00007480047FEE7FEE7FEE7FEE7FEE7FEE72B
:1001E00004480549054A064B70470000911A00086B
:1001F000C100000868020020680800206804002090
:1002000068040020FEB5044610460D46184373D01E
:10021000A6468C460020A41A01469D4167D3664637
:10022000002701243D46B61A9D4102D313463A46A3
:100230002124654676462F04360C3E432D0CB61A13
:100240009D4104D3150C1B042B4312041034654646
:1002500076462F06360A3E432D0AB61A9D4104D330
:10026000150E1B022B4312020834654676462F07F3
:1002700036093E432D09B61A9D4104D3150F1B01C3
:100280002B431201241D65467646AF07B6083E4350
:10029000AD08B61A9D4104D3950F9B002B439200E5
:1002A000A41C65467646EF0776083E436D08B61AED
:1002B0009D411AD392185B41641C16E000187646E3
:1002C00065464941B71A9D410191009009D36046A6
:1002D000B11A98418E468446009801990025401C29
:1002E0006941DD0752082A435B08641EE6D5724661
:1002F000634603B0F0BDFFE72046284307D0002047
:10030000C0430146C046C04622462B46F1E70020C6
:100310000146F7E70FB41CB50C0007AA009007D000
:100320004142A14202D30019401E01E00020C04317
:10033000074B7B4469460190069800F0D6FA0020EE
:10034000002C01D0009908701CBC08BC04B01847F0
:10035000DB05000070B5044685690068C10601D55B
:10036000302600E02026C00707D070BD6268304606
:10037000A1689047206A401C20626D1EF6D570BDB2
:1003800070B5044685690078C00707D170BD626802
:10039000A16820209047206A401C20626D1EF6D57F
:1003A00070BD0000F7B5002575291068009914A6E6
:1003B00011D0C046C046002802DA404211A608E02B
:1003C000009909688A0701D50FA602E0490704D5FC
:1003D0000EA6012501E0C046C046009F0024243738
:1003E00004E000F09DFA30313955641C0028F8D142
:1003F0002B4632462146009800F019FAFEBD000057
:10040000000000002D0000002B0000002000000074
:10041000F3B50446002081B020622046E168884799
:1004200000287DD0252802D06268A16883E0454F6E
:1004300000257F442046E16888472028064608DBDF
:10044000312E06D2B81920380078002801D0054393
:10045000F0E7A80701D5042085430020E0610746A6
:10046000A0612A2E0AD0304602F003F8002827D0D7
:10047000B8000019303E0090866119E00298BA0079
:10048000121902C8916102902046E1688847012F45
:10049000064617D1E06900281FDA202085431CE0BA
:1004A00000980A2180694843009980193038886192
:1004B0002046E1688847064601F0DBFF0028EFD1BF
:1004C000012F0AD02E2E08D12046E1688847064623
:1004D000202005437F1C022FC3DBA069002803DA1C
:1004E0004042A06101200543E80701D01020854368
:1004F000002E24D030464138192803D80120C002EC
:1005000005432036204625603146029A1546FFF7FE
:1005100023FE00280CD0012807D0ED1DE80800E0DC
:100520000DE0C0000830029077E72D1D029574E7BA
:1005300062683046A1689047206A401C6CE7206AD8
:10054000FEBD00004A2000000B4A30B511460B4C9E
:1005500060310B46DC3B0CC1372106E0020C8D00FC
:1005600012185A51064A504300190A46491E002AD9
:10057000F4DC30BD0120E7E7AC000020E119D666CD
:10058000CD0D010030B505460B462A461C78107883
:10059000521C5B1C002801D0A042F7D0002C03D0D5
:1005A000002802D06D1CEFE7284630BD30B5441C52
:1005B00003E00178401C00290DD08107F9D10B4BD5
:1005C000DD0104C8D11A91432940FAD0001B0A0664
:1005D00003D0C01E30BD001B30BD0A0401D0801EF8
:1005E00030BD0902FCD0401E30BD000001010101F8
:1005F00001E004C0091F0429FBD28B0701D502804A
:10060000801CC90700D00270704700290BD0C307B7
:1006100002D00270401C491E022904D3830702D570
:100620000280801C891EE3E70022EEE70022DFE75C
:10063000002203098B4273D3030A8B4258D3030B66
:100640008B423CD3030C8B4221D312E003460B4375
:100650007FD4002243088B4274D303098B425FD3BB
:10066000030A8B4244D3030B8B4228D3030C8B42E7
:100670000DD30902FF2212BA030C8B4202D31212CD
:10068000090265D0030B8B4219D300E0090AC30BA2
:100690008B4201D3CB03C01A5241830B8B4201D34F
:1006A0008B03C01A5241430B8B4201D34B03C01A38
:1006B0005241030B8B4201D30B03C01A5241C30AB0
:1006C0008B4201D3CB02C01A5241830A8B4201D321
:1006D0008B02C01A5241430A8B4201D34B02C01A0B
:1006E0005241030A8B4201D30B02C01A5241CDD2B0
:1006F000C3098B4201D3CB01C01A524183098B42FB
:1007000001D38B01C01A524143098B4201D34B01E3
:10071000C01A524103098B4201D30B01C01A524146
:10072000C3088B4201D3CB00C01A524183088B42CD
:1007300001D38B00C01A524143088B4201D34B00B6
:10074000C01A5241411A00D2014652411046704728
:100750005DE0CA0F00D04942031000D3404253402D
:100760009C46002203098B422DD3030A8B4212D3ED
:100770008901FC2212BA030A8B420CD3890192111F
:100780008B4208D3890192118B4204D389013AD05C
:10079000921100E08909C3098B4201D3CB01C01A31
:1007A000524183098B4201D38B01C01A5241430944
:1007B0008B4201D34B01C01A524103098B4201D332
:1007C0000B01C01A5241C3088B4201D3CB00C01A9F
:1007D000524183088B4201D38B00C01A5241D9D2B7
:1007E00043088B4201D34B00C01A5241411A00D238
:1007F00001465241104663465B1001D34042002B34
:1008000000D54942704763465B1000D3404201B5B2
:100810000449002802DC491C084000E00846C046A4
:10082000C04602BDFFFFFF7F704770477047FFB5AE
:1008300004460D4681B0243000902168880604D516
:100840001022E0699143216000E00120A84201DD0F
:10085000471B00E000270498A1697A191018081AAC
:10086000A0612078C00602D42046FFF773FD002661
:1008700008E003986268A168805D9047206A401C88
:10088000761C206204988642F3DB2078C0060AD5E5
:100890002046FFF75FFD06E06268A16830209047C0
:1008A000206A401C206238467F1E0028F4DC07E0E6
:1008B00000986268A168405D9047206A401C2062F1
:1008C00028466D1E0028F3DC2046FFF759FD2078EE
:1008D000000602D5022005B0F0BD0120FBE70000B4
:1008E00001694A1C02610878704700B58FB0029117
:1008F0000021059105490193794403911146049023
:100900006846FFF785FD0FB000BD0000E5FFFFFF63
:100910000CC908399A4202D2531C0B601070704700
:1009200001468008081A02091018020A1018020C61
:100930001018C008820012185200891A01E0401CE9
:100940000A390A29FBD27047754600F025F8AE46F1
:10095000050069465346C008C000854618B020B55A
:10096000FFF73EFC60BCB64600260027C0C5C0C5E8
:10097000C0C5C0C5C0C5C0C5C0C5C0C5403D49088B
:1009800049008D46704710B50446C046C046204613
:10099000FFF7F9FB10BD000000487047140100206C
:1009A00001491820ABBEFEE7260002007047000098
:1009B000B0B5044600F0E0F80546601C02D08E4851
:1009C0000078041900F0D8F8401BA042FAD3B0BD5B
:1009D000F0B58AB0029009910A68002A00D1B2E00D
:1009E0005A48029B834201D0062000E005200B21DB
:1009F00009075918890A9B0559180091052900D340
:100A0000009000273C463E460CE0114350480160F0
:100A1000761C099802681046F0403F1DA41C00286F
:100A200000D190E001210846B0400240F0D003968A
:100A300001920591069703252946A140CA430999C9
:100A400026464C6823462B405F1E012F08920494D3
:100A5000079610D80F4602998D681540FF68B74079
:100A60002F438F60E506ED0F039EB5404F68874327
:100A70002F434F6006E0032B039E03D12B46029FBA
:100A8000049C1EE0029FF8680899084009998D6847
:100A900007998D400543FD60022B049C11D11C2059
:100AA000069908400F218140F3089B00FC18256A35
:100AB0008D43099B19698140294321625C680323A6
:100AC0002340079DAB4038680899084018433860B8
:100AD000A0032C46800F069F059B99D04D490868BE
:100AE000184308600C2038400F218140032335460D
:100AF0009D43184AAB588B43009981401943A95034
:100B00001348816809984068C30202D5019A1143CD
:100B100001E0019A91430E4B9960D968830201D597
:100B2000114300E091430A4BD9605968830301D512
:100B3000114300E09143064B59601968C00300D58A
:100B400063E7914362E70AB0F0BDC046001C005065
:100B5000000401400800014042690B4693430A40EB
:100B60001104C91881617047002A02D018228150EF
:100B70007047282281507047054800687047C0467A
:100B80001D48007802490A68101808607047C0467E
:100B90006002002010B50848016840220A43026044
:100BA0000024204600F00AF8002801D0012010BDE2
:100BB00000F026F8204610BD0020024070B5044623
:100BC0007D20C0000C4E317801F058FB01460B48E7
:100BD000006801F053FB00F089FD0125032C08D8C3
:100BE000002806D10025E84321462A4600F014F8E3
:100BF0007460284670BDC046240000202C000020F0
:100C000004480168012211430160110742680A4348
:100C10004260704734100240002805D40322034686
:100C200093430A4A9A1803E00C220240064BD2185A
:100C30008007C00E8901C9B28140FF23834010683C
:100C4000984308431060704714ED00E000E400E0B2
:100C5000F0B589B0066801252F02EA02114620315D
:100C6000874B0E427CD0059208902907143B1868E8
:100C70000840049002D1186808431860019302915B
:100C8000804C2068384211D1206838432060FFF73B
:100C900073FF06462068384208D1FFF76DFF801BBE
:100CA0006428F7D90325284609B0F0BD032634058A
:100CB00073484C38069001682140089B58680246EA
:100CC000039422400096340491420AD10246224005
:100CD000A242069E0DD19A68039B1A40914205D10B
:100CE00007E001462140A142069E02D131688903F6
:100CF000D9D4634B59680794214021D0079A1040FA
:100D0000814203D00898007880060AD40898806849
:100D1000079A1040814213D008980068059908424C
:100D20000ED05868E9045A680A435A605A688A43E0
:100D30005A600146079A91435960384200D08CE0CE
:100D40000898066805990E42079C59D1B1066DD4E2
:100D50000499002904D1019C2168029A91432160E1
:100D6000F1070DD1B10713D4710719D4310720D47D
:100D70003E4227D171062ED40025310693D535E0A9
:100D8000196803229143C2680A431A60B107EBD580
:100D900019680C22914302690A431A607107E5D56C
:100DA000032189021A688A43416911431960310796
:100DB000DED5032109031A688A438169114319604A
:100DC0003E42D7D0032109041A688A43C1691143FE
:100DD00019607106D0D5012189061A688A43416AD3
:100DE000114319600025310600D45CE703218A0411
:100DF00019689143006A08431860284609B0F0BD9D
:100E0000826811462140A1420BD10398024003237E
:100E10001B05069D2C689C43194B089814432C60B5
:100E2000079C5A680A435A60B10691D54268114638
:100E30002140A1420AD10398024003231B05069DCD
:100E40002C689C430E4B089814432C605A680A4344
:100E50005A600499002983D17DE7FFF78DFE05468E
:100E6000904C074B5868800500D569E7FFF784FE72
:100E7000401BA042F5D9009D284609B0F0BDC046F0
:100E80004C10024000700040F0B583B00290002882
:100E900046D00E4682480068012101910840B042C8
:100EA00016D27F4908680125A843304308607D4C6D
:100EB000FFF762FE07467A4800682840B04207D034
:100EC000FFF75AFEC01BA042F5D9032003B0F0BDC6
:100ED000029800688107814D06D52968F022914368
:100EE000029A92680A432A60C0071CD16C480068C5
:100EF00001273840B04225D969490868B8430860DD
:100F0000684CFFF739FE054665480068C00719D0F0
:100F1000FFF732FE401BA042F6D9032003B0F0BD1C
:100F2000012003B0F0BD0298426829460C39012A1D
:100F300032D0032A35D0022A39D1096889030198B1
:100F400033D538E0029800684107644C07D5072183
:100F5000090222688A430299C96811432160000787
:100F600008D50720C0022168814302980069C000AB
:100F70000843206021680807820F73487A44127979
:100F80005200974401617F68380421460839096896
:100F90000904490F884075E009684907019804D59C
:100FA00009E009688901019805D403B0F0BD09681A
:100FB00089050198F9D529680320019081431143DF
:100FC0002960FFF7D9FD074602984068354C032891
:100FD00011D002281DD0012829D128680C210140F8
:100FE000042900D182E7FFF7C7FDC01BA042F4D956
:100FF000019803B0F0BD28680C2101400C2900D1F4
:1010000074E7FFF7B9FDC01BA042F4D9019803B003
:10101000F0BD28680C210140082900D166E7FFF7E0
:10102000ABFDC01BA042F4D9019803B0F0BD286805
:101030000007800F00D159E7FFF79EFDC01BA042BB
:10104000F5D9019803B0F0BD20460C380068C00601
:1010500012D53F4816E08A02120F3C4B9A5C0902F7
:10106000890F491C2368DB0309D420460C3800682B
:10107000C00603D4374802E0364803E03448504302
:1010800001F0FCF821680906090F074A515CC840C5
:101090001149086005480068FFF790FD03B0F0BDF6
:1010A000002002408813000091240008280000203E
:1010B00009480068094909684905490F084A515C0F
:1010C000C840704704480068044909688904490F0A
:1010D000034A515CC84070472C0000200C100240AD
:1010E000A124000810B5844AD1680807830F164868
:1010F0007B441B795B009F440108070D012000041D
:1011000051680904490F884010BD1068C00613D506
:101110000F4810BD8B021B0F0C4CE35C0902890FBA
:10112000491CD468E40303D41068C00606D40948F7
:10113000584301F0A3F810BD064810BD04485843B9
:1011400001F09CF810BDC04600127A00A9240008E6
:1011500000093D000024F400F0B589B0002856D005
:10116000654EF1680C220A4006920121059109049E
:10117000F76804910F4007900078C00710D00698D8
:10118000082806D006980C2800D0D7E0002F00D100
:10119000D4E03068800303D507984068002852D017
:1011A00007980078800735D407980078C0064DD49A
:1011B00007980078000767D407990878400700D59A
:1011C0009CE00878800600D523E10798846A002C0B
:1011D0001AD006980C2800D06FE1012C33D0F068AB
:1011E000049A0240079BD96A8A422CD10F218904B4
:1011F00001401A6B914226D1032189050840596BA1
:101200008842059800D05BE2002009B0F0BD0120C3
:1012100009B0F0BD079BD868810604D5316820224B
:101220001143316090430699042906D006990C2990
:1012300000D0AEE0002F00D0ABE0316800283AD1FA
:101240000422114037D0059809B0F0BD0698002857
:1012500000D1B4E030680799C969002900D108E1DC
:1012600001210A02104330604C02FFF785FC05465D
:101270003068204200D00FE1FFF77EFC401B0228BF
:10128000F6D9032009B0F0BD306D079949690029EE
:1012900000D1DDE0012108433065FFF76DFC054614
:1012A000306D800788D4FFF767FC401B0228F7D910
:1012B000032009B0F0BD1F21090272688A43196931
:1012C0000902114371603168092291430143316081
:1012D000F1680807820FFB485200C0467A449288A2
:1012E0005200974403002001DE01260170680004CB
:1012F000410F04988840D4E10010024001221107F8
:10130000B06B0840029002D1B06B0843B06301910A
:1013100003921402F24F3868C00525D43868204380
:101320003860FFF729FC0546386820421CD1FFF7DA
:1013300023FC411B03206429F6D9C1E107984068CA
:1013400005994C040499884209D005210904884272
:1013500000D0C9E0059880043168014331603068ED
:10136000049908433060CFE007988068002800D1D6
:1013700022E1052109028842039A00D133E1A0420B
:1013800000D134E1306DA04330659102306D884367
:101390002FE13168002800D1DDE0092291430143AB
:1013A0003160FFF7E9FB05463068400700D5F9E0FA
:1013B000FFF7E2FB411B03200229F5D980E13068E9
:1013C0008005079B03D5D869002800D13BE707209B
:1013D000400371688143586A01437160FF21090627
:1013E00072688A43196A090689187160400B04996A
:1013F0008140F0680006000FB64A105CC140B64854
:101400000160B6480068FFF7D9FB002800D057E11B
:10141000CEE6B06807998969002900D1ACE00121C6
:101420000843B060706B084370634803AE490A68B4
:1014300002430A60FFF7A0FB0546B068800700D5AD
:10144000C3E6FFF799FB411B03200229F5D937E1D9
:10145000012188433065FFF78FFB0546306D80071B
:1014600000D4A9E6FFF788FB411B03200229F5D928
:1014700026E101210A02904330604C02FFF77CFB19
:1014800005463068204200D192E6FFF775FB411B0C
:1014900003200229F5D913E1072040037168814335
:1014A000079A506A08437060FF2000067168814304
:1014B000106A0006401870607AE601273806316825
:1014C00081433160FFF758FB0546022C00D0AAE0AB
:1014D0007F063068384200D1C1E0FFF74DFB411B69
:1014E00003200229F5D9EBE03168049A9143316079
:1014F00031681140089108990599890432688A4336
:101500003260002800D19CE0FFF736FB05463068CA
:10151000204200D044E6FFF72FFB401B6428F6D999
:10152000032009B0F0BD3068C00600D487E06748EA
:10153000B7E08A02120F644B9A5C0902890F491CBA
:10154000F368049C234200D0A8E03068C00600D5B0
:10155000A3E05F48A2E0012081433160FFF70CFB6C
:1015600005463068400700D41EE6FFF705FB411B27
:1015700003200229F5D9A3E001218843B060480384
:1015800059490A6882430A60FFF7F6FA0546B068CF
:10159000800700D419E6FFF7EFFA411B0320022968
:1015A000F5D98DE01F20000271688143079800691A
:1015B000000208437060F7E5306DA0433065039A80
:1015C0009002316D814331655402464FFFF7D4FAE2
:1015D0000546306D20421CD0FFF7CEFA411B032098
:1015E000B942F6D96CE09002316D01433165306D3E
:1015F0002043306554023B4FFFF7BEFA0546306D7D
:10160000204206D1FFF7B8FA411B0320B942F6D9B0
:1016100056E002980028079900D0D2E5B06B019AF5
:101620009043B063CDE57C063068204200D1EBE505
:10163000FFF7A2FA411B03200229F5D940E0244814
:101640002FE0FFF799FA05463068204200D1A7E560
:10165000FFF792FA411B03206429F5D930E0FD2001
:101660000004F1688143079B2C330DCB08431043E2
:101670001843F0602748401C316801433160FFF790
:101680007BFA04463068384200D0BDE5FFF774FAB3
:10169000011B03200229F5D912E00C48504300F049
:1016A000EDFDF1680906090F0A4A515CC8400A4974
:1016B00008600A480068FFF781FA002800D173E546
:1016C00009B0F0BD00127A00A924000800093D000D
:1016D0000024F400912400082C00002028000020A1
:1016E000007000408813000020000140401E010EE1
:1016F00001D0012070470749074A50600748036836
:101700000B400321890759180160002090600721D0
:1017100011607047FFFFFF0010E000E020ED00E0E7
:10172000B0B5002817D00446C06F002805D1782036
:1017300000212154204600F02BF82420E067206887
:1017400001680125A9430160204600F06DFA0028D8
:1017500003D02846B0BD0120B0BD606A002802D089
:10176000204600F096F90920C00221684A688243A9
:101770004A6088682A2290438860086801220243F0
:101780000A60204600F0EEF905462846B0BD00008C
:1017900080B586B000681149884201D006B080BD8E
:1017A000012041040E4AD3680B43D3601168014302
:1017B00011601168014000910420059003200490FD
:1017C00000200390022002900C20019005200007C9
:1017D000009901A9FFF7FCF806B080BD0044004065
:1017E0002C100240F0B587B0044605465835A86A6B
:1017F000202812D1012600290CD01746002A09D032
:1018000001263203A06890420BD1C80709D0206995
:10181000002806D1304607B0F0BD0226304607B09A
:10182000F0BD02A846C006930026EE622220A86200
:101830002666FFF7A1F905906F802F80A068002829
:1018400011D0049909078842069912D0039A904250
:1018500014D1206900280AD155480490A880002797
:10186000029803901BE020690028069909D1FF2007
:1018700008E02069002804D03F2003E0AE800496F1
:1018800002E07F200490A8800396029F07E004995D
:10189000084038707F1C06996888401E68806888F8
:1018A000002816D000912021002620463246059BB4
:1018B00000F0D0FA00280BD12068406A002FE6D152
:1018C0000499084003990880891C03910027E2E7E6
:1018D00003262020A862304607B0F0BDF0B585B0E1
:1018E0000546C06F202811D1012000290CD01646D2
:1018F000002A09D001200703AA68BA4209D1CA0701
:1019000007D02A69002A04D105B0F0BD022005B035
:10191000F0BD019103932C46503400200290606387
:101920002120E867FFF728F9049066802680A868E0
:10193000B84202D12869002801D0019F02E00027A7
:101940000198029003990CE0029A10881849084007
:1019500029688862921C0292374603996088401E6B
:1019600060806088002810D00091802100262846E1
:101970003246049B00F06EFA002814D1002FE3D009
:101980003878296888627F1CE7E7009140210022AF
:101990002846049B00F05EFA2021E9670028B3D0B6
:1019A000032005B0F0BD2020E867032005B0F0BD9E
:1019B000FF010000FEE7FEE77047704780B5FFF7C4
:1019C000DFF880BD70B59EB010AC201D3421FEF74D
:1019D0002DFE01A8001D2421FEF728FE0320C002D1
:1019E0002A490A68824301201790C0021018086033
:1019F00000251A950526700319901895102010904F
:101A00002046FFF7A9FB00280DD0EFF3108072B637
:101A10007D208400350720212846FFF79DF82046C9
:101A2000FEF7C6FFF7E70C950F200B900D950E956E
:101A30000F950BA82946FFF727FA00280DD0EFF3E2
:101A4000108072B67D208400350720212846FFF7DC
:101A500083F82046FEF7ACFFF7E7059502200190DA
:101A600001A8FFF7F5F800280DD0EFF3108072B64B
:101A70007D208400350720212846FFF76DF8204699
:101A8000FEF796FFF7E71EB070BDC046007000403D
:101A90007047B0B5416ACA070CD18A0714D44A0707
:101AA0001CD40A0724D4CA062CD48A0634D44A0685
:101AB0003CD44CE00122520403685C689443826A7F
:101AC00022435A608A07EAD50122120403685C683F
:101AD0009443C26A22435A604A07E2D50122920423
:101AE00003685C689443026B22435A600A07DAD5A4
:101AF0000122D20303685C689443426B22435A601C
:101B0000CA06D2D50122120303689C689443826BF3
:101B100022439A608A06CAD50122520303689C6850
:101B20009443C26B22439A604A0610D501221305E2
:101B3000026854689C43056C2C4354609D4206D156
:101B400003235B0554689C43436C2343536009069D
:101B500007D50121C904026853688B43806C184380
:101B60005060B0BDF0B583B0044606467836002715
:101B7000F760FFF701F803462068016809071FD5E1
:101B800028480090012002904105002220461D4671
:101B900000F060F9002811D0EFF31080029981F372
:101BA000108821680A6880239A430A6080F31088AD
:101BB0002020E0670320377003B0F0BD20682B467B
:101BC0000068400725D5174800900125A905002287
:101BD000204600F03FF900281BD0EFF3108085F37A
:101BE000108809214901226813688B43136080F330
:101BF0001088EFF3108085F3108821688A68AA4363
:101C00008A6080F310882020B0600320377003B012
:101C1000F0BD2020E067B060276667663846377001
:101C200003B0F0BDFFFFFF01F0B581B004460168CD
:101C30000868764A0240A068236903436069184334
:101C40001043E26910430860032630034B68834366
:101C5000E06818434860A5696D4B994202D0206A3C
:101C6000284300E028460B252D028F68AF43074329
:101C70008F606848814214DD0027674881421FD089
:101C8000664881421CD06648814243D16648C06C98
:101C90008007000F66A52F580125E803994213D14C
:101CA0003DE06048814205D0994233D15E48C06C26
:101CB000000A01E05C48C06C0C2505405B484759B0
:101CC0000125E80399422AD0824212D1082F00D977
:101CD00096E0C0467F443F797F00BF44043C469174
:101CE0004C9191917300FFF7E3F9002800D069E06F
:101CF00085E0082F00D983E07F443F797F00BF440F
:101D0000042F3F7F457F7F7F7200FFF7D1F90028C6
:101D100069D174E010270125E8039942D4D1082F36
:101D20006ED8C0467F443F797F00BF44046909698B
:101D30000F6969693500FFF7BBF900282CD15EE017
:101D400039480068C00626D53E4825E0FFF7CAF9A5
:101D5000002821D153E0FFF7B5F9002832D14EE039
:101D6000FFF7B0F900283ED149E02F480068C006CF
:101D700027D5344826E0FFF7B5F9002822D13EE008
:101D800029480068C0062DD52E482CE0FFF7AAF997
:101D9000002828D133E02A4862685643B0422FD346
:101DA000110388422CD8010E560800020023801926
:101DB0005941FEF727FA25494118254A91421CD37B
:101DC0001EE01F48400061684A08101800F056FAEB
:101DD0000246103A1C498A4212D201400007400FC5
:101DE00008430AE0164861684A08101800F046FAED
:101DF00001461039144A914202D22168C860002578
:101E00000020A066E066284601B0F0BDF369FFEF50
:101E100000480040FF4B0040004C00400050004094
:101E2000003801400044004000100240B424000883
:101E30000100000004000000020000000800000093
:101E40000024F40000093D00F0FF000000FDFFFF4A
:101E500000FD0F00F0B587B015460F460668F16922
:101E60003940C91B4A424A410021AA4225D1069362
:101E70000C9C002C24D00B46611C26D1F169394002
:101E8000C91B4A424A41AA4214D1F1693940C91BCF
:101E90004A424A41AA420DD1F1693940C91B4A421E
:101EA0004A41AA4206D1F1693940C91B4A424A4116
:101EB000AA42E3D0184607B0F0BD084607B0F0BD0F
:101EC000FEF75AFE032007B0F0BD029301467831B9
:101ED000039101210191C9020491059006E0C969AD
:101EE0003940CA1B51425141A9424BD1FEF744FE31
:101EF0000699411A0323A142DCD8059801680A68B3
:101F00005207ECD5CA6912073FD4CA692646049C19
:101F100022423446E3D01F4604980862EFF3108251
:101F2000012181F3108809235B0105980468256865
:101F30009D43256082F31088EFF3108281F31088AF
:101F4000059803689C688C439C60059882F3108810
:101F5000026E012A0BD1EFF3108281F31088016821
:101F60000B681024A3430B60059882F3108820218E
:101F7000039B99600022026682661A70D960384617
:101F800007B0F0BD029807B0F0BD08250D62EFF371
:101F90001081019880F3108809225201059B1B686B
:101FA0001C6894431C6081F31088EFF3108180F368
:101FB0001088059A1268936883439360059B81F3A8
:101FC0001088196E01290CD1EFF31081012282F3E0
:101FD00010881A6813681024A3431360059B81F3CB
:101FE00010882021039A916000211966996611706A
:101FF000D56007B0F0BD00008CB0FEF7CBFDFFF759
:10200000E1FC00270B970A978B48016804221143D3
:1020100001600168019211400691069901688022D1
:10202000114301600168114006910699016801257C
:102030002943016000682840069006980520039017
:1020400004072021059120463A46FEF78DFD0997A9
:1020500021200004089068030790784807AE3146B5
:10206000FEF7B6FC0A97099704950895059807901E
:1020700020463146FEF7ACFC71480C21E1225202A9
:10208000704B036042608760C76007614161876190
:10209000C76107624762FFF743FB00280BD0EFF3ED
:1020A000108072B620212046FEF756FD7D2080006C
:1020B000FEF77EFCF6E70297F8430590634D604C0F
:1020C00028780828FCD8C046784400794000874426
:1020D0000E1F36406F7D0495AC006348C11C0E2274
:1020E0002046059BFFF7FAFB07262E70E8E7681CE1
:1020F0002021FEF799FA5C4E3046FEF757FA82B27D
:1021000020463146059BFFF7E9FB049E2E70D7E77A
:102110006F1C02262046394632464B4BFFF762FBC6
:102120000028CDD16878A978090208184F4988425B
:10213000C6D120213846FEF777FA2E70C0E74A490B
:10214000113111222046059BFFF7C8FB03262E7094
:10215000B6E76E1C0722204631463B4BFFF742FB99
:10216000002805D0304642A1FEF70CFA0028A7D07F
:1021700020213046FEF758FAFEF70CF82927394699
:10218000FEF764FA0E46FEF705F83946FEF75EFAEA
:102190000A3900910A3E284621304021364A33460A
:1021A000FEF7B8F8602000212954019E2E7087E7C1
:1021B0002E4621363046FEF7F9F982B220463146E6
:1021C000059BFFF78BFB039E2E7079E76E1C0222A6
:1021D000204631461C4BFFF705FB002807D06878E6
:1021E000A978090208182149884200D068E720210F
:1021F0003046FEF719FA06262E7061E76E1C202283
:1022000020463146124BFFF7EDFA002806D0304643
:1022100010A1FEF7B7F9002800D151E72021304680
:10222000FEF702FA08262E704AE70748FEF7C0FBC1
:10223000029E2E7044E7C0462C1002400008005059
:10224000D8010020004400408813000074010020E1
:10225000102700002B51485454504745543A203021
:102260002C3230302C323500000000204F4B000063
:10227000434F4E4E45435400C724000843088B4249
:102280001AD3002203098B4279D3030A8B425ED30F
:10229000030B8B4242D3030C8B4227D30902FF224C
:1022A00012BA030C8B4202D31212090203D0030BA1
:1022B0008B4233D31AE0D3E0411A8041401C70476F
:1022C00003460B4371D443088B42F5D30022030924
:1022D0008B4254D3030A8B4239D3030B8B421DD359
:1022E000030C8B4202D394466EE0090AC30B8B4267
:1022F00001D3CB03C01A5241830B8B4201D38B0312
:10230000C01A5241430B8B4201D34B03C01A5241B6
:10231000030B8B4201D30B03C01A5241C30A8B42F9
:1023200001D3CB02C01A5241830A8B4201D38B02E4
:10233000C01A5241430A8B4201D34B02C01A524188
:10234000030A8B4201D30B02C01A5241CDD2C309FA
:102350008B4201D3CB01C01A524183098B4201D376
:102360008B01C01A524143098B4201D34B01C01A61
:10237000524103098B4201D30B01C01A5241C308D9
:102380008B4201D3CB00C01A524183088B4201D348
:102390008B00C01A524143088B4201D34B00C01A34
:1023A0005241411A524110007047CA0F00D04942B1
:1023B000031000D34042534000229C4603098B4245
:1023C0002DD3030A8B4212D38901FC2212BA030ACD
:1023D0008B420CD3890192118B4208D3890192114F
:1023E0008B4204D3890137D0921100E08909C309D7
:1023F0008B4201D3CB01C01A524183098B4201D3D6
:102400008B01C01A524143098B4201D34B01C01AC0
:10241000524103098B4201D30B01C01A5241C30838
:102420008B4201D3CB00C01A524183088B4201D3A7
:102430008B00C01A5241D9D243088B4201D34B00C2
:10244000C01A5241411A00D2014652411046634619
:102450005B1000D34042704763465B1000D340429C
:1024600001B50021004201D0C9430846C046C0461C
:1024700002BD30380A2801D2012070470020704781
:10248000040000080000000000000002000100003D
:10249000100000000000000000010203040607080D
:1024A000090000000001020304030406080C1018D0
:1024B00020300000000000000400000002000000C6
:1024C000080000004F4B0068747470733A2F2F6D32
:1024D0006F64656D2D746573742E76657263656CBB
:1024E0002E6170702F73656E736F722D64617461ED
:1024F0003F73656E736F72313D25303264267365AC
:102500006E736F72323D2530326400003025000852
:1025100000000020300000001C01000860250008B9
:1025200030000020380800003C01000800000000D6
:1025300041540041542B51485454504745543D3860
:102540003041542B514854545055524C3D36332C45
:1025500038300000010000000400000000002000EE
:04000005080000C12E
:00000001FF
